{
  "contractName": "Faucet",
  "abi": [
    {
      "inputs": [
        {
          "internalType": "address",
          "name": "",
          "type": "address"
        }
      ],
      "name": "accounts",
      "outputs": [
        {
          "internalType": "string",
          "name": "name",
          "type": "string"
        },
        {
          "internalType": "uint256",
          "name": "age",
          "type": "uint256"
        }
      ],
      "stateMutability": "view",
      "type": "function",
      "constant": true
    },
    {
      "inputs": [
        {
          "internalType": "string",
          "name": "_name",
          "type": "string"
        },
        {
          "internalType": "uint256",
          "name": "_age",
          "type": "uint256"
        }
      ],
      "name": "setAccountInfo",
      "outputs": [],
      "stateMutability": "nonpayable",
      "type": "function"
    },
    {
      "inputs": [],
      "name": "getAccountInfo",
      "outputs": [
        {
          "internalType": "string",
          "name": "",
          "type": "string"
        },
        {
          "internalType": "uint256",
          "name": "",
          "type": "uint256"
        }
      ],
      "stateMutability": "view",
      "type": "function",
      "constant": true
    }
  ],
  "bytecode": "0x608060405234801561001057600080fd5b5061093c806100206000396000f3fe608060405234801561001057600080fd5b50600436106100415760003560e01c80631b9e16ad146100465780635e5c06e21461006557806388d68e4e14610096575b600080fd5b61004e6100b2565b60405161005c92919061039c565b60405180910390f35b61007f600480360381019061007a919061043e565b6101cd565b60405161008d92919061039c565b60405180910390f35b6100b060048036038101906100ab91906105cc565b610279565b005b606060008060003373ffffffffffffffffffffffffffffffffffffffff1673ffffffffffffffffffffffffffffffffffffffff1681526020019081526020016000206000016000803373ffffffffffffffffffffffffffffffffffffffff1673ffffffffffffffffffffffffffffffffffffffff1681526020019081526020016000206001015481805461014590610657565b80601f016020809104026020016040519081016040528092919081815260200182805461017190610657565b80156101be5780601f10610193576101008083540402835291602001916101be565b820191906000526020600020905b8154815290600101906020018083116101a157829003601f168201915b50505050509150915091509091565b60006020528060005260406000206000915090508060000180546101f090610657565b80601f016020809104026020016040519081016040528092919081815260200182805461021c90610657565b80156102695780601f1061023e57610100808354040283529160200191610269565b820191906000526020600020905b81548152906001019060200180831161024c57829003601f168201915b5050505050908060010154905082565b6040518060400160405280838152602001828152506000803373ffffffffffffffffffffffffffffffffffffffff1673ffffffffffffffffffffffffffffffffffffffff16815260200190815260200160002060008201518160000190816102e19190610834565b50602082015181600101559050505050565b600081519050919050565b600082825260208201905092915050565b60005b8381101561032d578082015181840152602081019050610312565b60008484015250505050565b6000601f19601f8301169050919050565b6000610355826102f3565b61035f81856102fe565b935061036f81856020860161030f565b61037881610339565b840191505092915050565b6000819050919050565b61039681610383565b82525050565b600060408201905081810360008301526103b6818561034a565b90506103c5602083018461038d565b9392505050565b6000604051905090565b600080fd5b600080fd5b600073ffffffffffffffffffffffffffffffffffffffff82169050919050565b600061040b826103e0565b9050919050565b61041b81610400565b811461042657600080fd5b50565b60008135905061043881610412565b92915050565b600060208284031215610454576104536103d6565b5b600061046284828501610429565b91505092915050565b600080fd5b600080fd5b7f4e487b7100000000000000000000000000000000000000000000000000000000600052604160045260246000fd5b6104ad82610339565b810181811067ffffffffffffffff821117156104cc576104cb610475565b5b80604052505050565b60006104df6103cc565b90506104eb82826104a4565b919050565b600067ffffffffffffffff82111561050b5761050a610475565b5b61051482610339565b9050602081019050919050565b82818337600083830152505050565b600061054361053e846104f0565b6104d5565b90508281526020810184848401111561055f5761055e610470565b5b61056a848285610521565b509392505050565b600082601f8301126105875761058661046b565b5b8135610597848260208601610530565b91505092915050565b6105a981610383565b81146105b457600080fd5b50565b6000813590506105c6816105a0565b92915050565b600080604083850312156105e3576105e26103d6565b5b600083013567ffffffffffffffff811115610601576106006103db565b5b61060d85828601610572565b925050602061061e858286016105b7565b9150509250929050565b7f4e487b7100000000000000000000000000000000000000000000000000000000600052602260045260246000fd5b6000600282049050600182168061066f57607f821691505b60208210810361068257610681610628565b5b50919050565b60008190508160005260206000209050919050565b60006020601f8301049050919050565b600082821b905092915050565b6000600883026106ea7fffffffffffffffffffffffffffffffffffffffffffffffffffffffffffffffff826106ad565b6106f486836106ad565b95508019841693508086168417925050509392505050565b6000819050919050565b600061073161072c61072784610383565b61070c565b610383565b9050919050565b6000819050919050565b61074b83610716565b61075f61075782610738565b8484546106ba565b825550505050565b600090565b610774610767565b61077f818484610742565b505050565b5b818110156107a35761079860008261076c565b600181019050610785565b5050565b601f8211156107e8576107b981610688565b6107c28461069d565b810160208510156107d1578190505b6107e56107dd8561069d565b830182610784565b50505b505050565b600082821c905092915050565b600061080b600019846008026107ed565b1980831691505092915050565b600061082483836107fa565b9150826002028217905092915050565b61083d826102f3565b67ffffffffffffffff81111561085657610855610475565b5b6108608254610657565b61086b8282856107a7565b600060209050601f83116001811461089e576000841561088c578287015190505b6108968582610818565b8655506108fe565b601f1984166108ac86610688565b60005b828110156108d4578489015182556001820191506020850194506020810190506108af565b868310156108f157848901516108ed601f8916826107fa565b8355505b6001600288020188555050505b50505050505056fea264697066735822122074c5eca82ee0c62031658aa602676e278969c0959d5250bcd159ab73756dd1ce64736f6c63430008130033",
  "immutableReferences": {},
  "source": "// SPDX-License-Identifier: MIT\r\npragma solidity 0.8.19;\r\n\r\ncontract Faucet {\r\n    struct AccountInfo {\r\n        string name;\r\n        uint age;\r\n    }\r\n\r\n    mapping(address => AccountInfo) public accounts;\r\n\r\n    function setAccountInfo(string memory _name, uint _age) public {\r\n        accounts[msg.sender] = AccountInfo(_name, _age);\r\n    }\r\n\r\n    function getAccountInfo() public view returns (string memory, uint) {\r\n        return (accounts[msg.sender].name, accounts[msg.sender].age);\r\n    }\r\n}\r\n",
  "sourcePath": "D:\\Documents\\GraduateProject\\Login\\eth\\contracts\\Faucet.sol",
  "compiler": {
    "name": "solc",
    "version": "0.8.19+commit.7dd6d404.Emscripten.clang"
  },
  "schemaVersion": "3.4.13",
  "updatedAt": "2023-04-18T04:20:47.689Z",
  "networkType": "ethereum",
  "devdoc": {
    "kind": "dev",
    "methods": {},
    "version": 1
  },
  "userdoc": {
    "kind": "user",
    "methods": {},
    "version": 1
  }
}