{
  "contractName": "Faucet",
  "abi": [
    {
      "inputs": [
        {
          "internalType": "address",
          "name": "",
          "type": "address"
        }
      ],
      "name": "accounts",
      "outputs": [
        {
          "internalType": "string",
          "name": "name",
          "type": "string"
        },
        {
          "internalType": "uint256",
          "name": "age",
          "type": "uint256"
        },
        {
          "internalType": "string",
          "name": "sign",
          "type": "string"
        },
        {
          "internalType": "string",
          "name": "publicKey",
          "type": "string"
        }
      ],
      "stateMutability": "view",
      "type": "function"
    },
    {
      "inputs": [
        {
          "internalType": "string",
          "name": "_name",
          "type": "string"
        },
        {
          "internalType": "uint256",
          "name": "_age",
          "type": "uint256"
        },
        {
          "internalType": "string",
          "name": "_sign",
          "type": "string"
        },
        {
          "internalType": "string",
          "name": "_publickey",
          "type": "string"
        }
      ],
      "name": "setAccountInfo",
      "outputs": [],
      "stateMutability": "nonpayable",
      "type": "function"
    },
    {
      "inputs": [],
      "name": "getAccountInfo",
      "outputs": [
        {
          "internalType": "string",
          "name": "",
          "type": "string"
        },
        {
          "internalType": "uint256",
          "name": "",
          "type": "uint256"
        },
        {
          "internalType": "string",
          "name": "",
          "type": "string"
        },
        {
          "internalType": "string",
          "name": "",
          "type": "string"
        }
      ],
      "stateMutability": "view",
      "type": "function"
    }
  ],
  "bytecode": "0x608060405234801561001057600080fd5b50610cc2806100206000396000f3fe608060405234801561001057600080fd5b50600436106100415760003560e01c80631b9e16ad1461004657806350338e79146100675780635e5c06e214610083575b600080fd5b61004e6100b6565b60405161005e9493929190610699565b60405180910390f35b610081600480360381019061007c9190610868565b610374565b005b61009d60048036038101906100989190610981565b610428565b6040516100ad9493929190610699565b60405180910390f35b606060006060806000803373ffffffffffffffffffffffffffffffffffffffff1673ffffffffffffffffffffffffffffffffffffffff1681526020019081526020016000206000016000803373ffffffffffffffffffffffffffffffffffffffff1673ffffffffffffffffffffffffffffffffffffffff168152602001908152602001600020600101546000803373ffffffffffffffffffffffffffffffffffffffff1673ffffffffffffffffffffffffffffffffffffffff1681526020019081526020016000206002016000803373ffffffffffffffffffffffffffffffffffffffff1673ffffffffffffffffffffffffffffffffffffffff1681526020019081526020016000206003018380546101ce906109dd565b80601f01602080910402602001604051908101604052809291908181526020018280546101fa906109dd565b80156102475780601f1061021c57610100808354040283529160200191610247565b820191906000526020600020905b81548152906001019060200180831161022a57829003601f168201915b5050505050935081805461025a906109dd565b80601f0160208091040260200160405190810160405280929190818152602001828054610286906109dd565b80156102d35780601f106102a8576101008083540402835291602001916102d3565b820191906000526020600020905b8154815290600101906020018083116102b657829003601f168201915b505050505091508080546102e6906109dd565b80601f0160208091040260200160405190810160405280929190818152602001828054610312906109dd565b801561035f5780601f106103345761010080835404028352916020019161035f565b820191906000526020600020905b81548152906001019060200180831161034257829003601f168201915b50505050509050935093509350935090919293565b6040518060800160405280858152602001848152602001838152602001828152506000803373ffffffffffffffffffffffffffffffffffffffff1673ffffffffffffffffffffffffffffffffffffffff16815260200190815260200160002060008201518160000190816103e89190610bba565b506020820151816001015560408201518160020190816104089190610bba565b50606082015181600301908161041e9190610bba565b5090505050505050565b600060205280600052604060002060009150905080600001805461044b906109dd565b80601f0160208091040260200160405190810160405280929190818152602001828054610477906109dd565b80156104c45780601f10610499576101008083540402835291602001916104c4565b820191906000526020600020905b8154815290600101906020018083116104a757829003601f168201915b5050505050908060010154908060020180546104df906109dd565b80601f016020809104026020016040519081016040528092919081815260200182805461050b906109dd565b80156105585780601f1061052d57610100808354040283529160200191610558565b820191906000526020600020905b81548152906001019060200180831161053b57829003601f168201915b50505050509080600301805461056d906109dd565b80601f0160208091040260200160405190810160405280929190818152602001828054610599906109dd565b80156105e65780601f106105bb576101008083540402835291602001916105e6565b820191906000526020600020905b8154815290600101906020018083116105c957829003601f168201915b5050505050905084565b600081519050919050565b600082825260208201905092915050565b60005b8381101561062a57808201518184015260208101905061060f565b60008484015250505050565b6000601f19601f8301169050919050565b6000610652826105f0565b61065c81856105fb565b935061066c81856020860161060c565b61067581610636565b840191505092915050565b6000819050919050565b61069381610680565b82525050565b600060808201905081810360008301526106b38187610647565b90506106c2602083018661068a565b81810360408301526106d48185610647565b905081810360608301526106e88184610647565b905095945050505050565b6000604051905090565b600080fd5b600080fd5b600080fd5b600080fd5b7f4e487b7100000000000000000000000000000000000000000000000000000000600052604160045260246000fd5b61074982610636565b810181811067ffffffffffffffff8211171561076857610767610711565b5b80604052505050565b600061077b6106f3565b90506107878282610740565b919050565b600067ffffffffffffffff8211156107a7576107a6610711565b5b6107b082610636565b9050602081019050919050565b82818337600083830152505050565b60006107df6107da8461078c565b610771565b9050828152602081018484840111156107fb576107fa61070c565b5b6108068482856107bd565b509392505050565b600082601f83011261082357610822610707565b5b81356108338482602086016107cc565b91505092915050565b61084581610680565b811461085057600080fd5b50565b6000813590506108628161083c565b92915050565b60008060008060808587031215610882576108816106fd565b5b600085013567ffffffffffffffff8111156108a05761089f610702565b5b6108ac8782880161080e565b94505060206108bd87828801610853565b935050604085013567ffffffffffffffff8111156108de576108dd610702565b5b6108ea8782880161080e565b925050606085013567ffffffffffffffff81111561090b5761090a610702565b5b6109178782880161080e565b91505092959194509250565b600073ffffffffffffffffffffffffffffffffffffffff82169050919050565b600061094e82610923565b9050919050565b61095e81610943565b811461096957600080fd5b50565b60008135905061097b81610955565b92915050565b600060208284031215610997576109966106fd565b5b60006109a58482850161096c565b91505092915050565b7f4e487b7100000000000000000000000000000000000000000000000000000000600052602260045260246000fd5b600060028204905060018216806109f557607f821691505b602082108103610a0857610a076109ae565b5b50919050565b60008190508160005260206000209050919050565b60006020601f8301049050919050565b600082821b905092915050565b600060088302610a707fffffffffffffffffffffffffffffffffffffffffffffffffffffffffffffffff82610a33565b610a7a8683610a33565b95508019841693508086168417925050509392505050565b6000819050919050565b6000610ab7610ab2610aad84610680565b610a92565b610680565b9050919050565b6000819050919050565b610ad183610a9c565b610ae5610add82610abe565b848454610a40565b825550505050565b600090565b610afa610aed565b610b05818484610ac8565b505050565b5b81811015610b2957610b1e600082610af2565b600181019050610b0b565b5050565b601f821115610b6e57610b3f81610a0e565b610b4884610a23565b81016020851015610b57578190505b610b6b610b6385610a23565b830182610b0a565b50505b505050565b600082821c905092915050565b6000610b9160001984600802610b73565b1980831691505092915050565b6000610baa8383610b80565b9150826002028217905092915050565b610bc3826105f0565b67ffffffffffffffff811115610bdc57610bdb610711565b5b610be682546109dd565b610bf1828285610b2d565b600060209050601f831160018114610c245760008415610c12578287015190505b610c1c8582610b9e565b865550610c84565b601f198416610c3286610a0e565b60005b82811015610c5a57848901518255600182019150602085019450602081019050610c35565b86831015610c775784890151610c73601f891682610b80565b8355505b6001600288020188555050505b50505050505056fea26469706673582212201e904fd3e73f7c1ff1c262e3b7153ac23892f3346a57e3892c2b0732d3140b5a64736f6c63430008130033",
  "immutableReferences": {},
  "source": "// SPDX-License-Identifier: MIT\r\npragma solidity 0.8.19;\r\n\r\ncontract Faucet {\r\n    struct AccountInfo {\r\n        string name;\r\n        uint age;\r\n        string sign;\r\n        string publicKey;\r\n    }\r\n\r\n    mapping(address => AccountInfo) public accounts;\r\n\r\n    function setAccountInfo(string memory _name, uint _age, string memory _sign,string memory _publickey) public {\r\n        accounts[msg.sender] = AccountInfo(_name, _age, _sign, _publickey);\r\n    }\r\n\r\n    function getAccountInfo() public view returns (string memory, uint, string memory,string memory) {\r\n        return (accounts[msg.sender].name, accounts[msg.sender].age, accounts[msg.sender].sign, accounts[msg.sender].publicKey);\r\n    }\r\n}\r\n",
  "sourcePath": "E:\\n4-2\\truyen project\\blockchain - Copy 1 - Copy\\contracts\\Faucet.sol",
  "compiler": {
    "name": "solc",
    "version": "0.8.19+commit.7dd6d404.Emscripten.clang"
  },
  "schemaVersion": "3.4.13",
  "updatedAt": "2023-05-21T03:29:24.730Z",
  "devdoc": {
    "kind": "dev",
    "methods": {},
    "version": 1
  },
  "userdoc": {
    "kind": "user",
    "methods": {},
    "version": 1
  }
}