{
  "contractName": "Node3KeyStorage",
  "abi": [
    {
      "inputs": [
        {
          "internalType": "address",
          "name": "_contractOwner",
          "type": "address"
        }
      ],
      "stateMutability": "nonpayable",
      "type": "constructor"
    },
    {
      "inputs": [
        {
          "internalType": "address",
          "name": "owner",
          "type": "address"
        },
        {
          "internalType": "string",
          "name": "_keyPart",
          "type": "string"
        }
      ],
      "name": "storeKeyPart",
      "outputs": [],
      "stateMutability": "nonpayable",
      "type": "function"
    },
    {
      "inputs": [
        {
          "internalType": "address",
          "name": "owner",
          "type": "address"
        }
      ],
      "name": "getKeyParts",
      "outputs": [
        {
          "internalType": "string",
          "name": "",
          "type": "string"
        }
      ],
      "stateMutability": "view",
      "type": "function",
      "constant": true
    }
  ],
  "bytecode": "0x608060405234801561001057600080fd5b50604051610a4b380380610a4b833981810160405281019061003291906100dc565b80600160006101000a81548173ffffffffffffffffffffffffffffffffffffffff021916908373ffffffffffffffffffffffffffffffffffffffff16021790555050610109565b600080fd5b600073ffffffffffffffffffffffffffffffffffffffff82169050919050565b60006100a98261007e565b9050919050565b6100b98161009e565b81146100c457600080fd5b50565b6000815190506100d6816100b0565b92915050565b6000602082840312156100f2576100f1610079565b5b6000610100848285016100c7565b91505092915050565b610933806101186000396000f3fe608060405234801561001057600080fd5b50600436106100365760003560e01c8063886969471461003b578063927af2e114610057575b600080fd5b6100556004803603810190610050919061047f565b610087565b005b610071600480360381019061006c91906104db565b610167565b60405161007e9190610587565b60405180910390f35b600160009054906101000a900473ffffffffffffffffffffffffffffffffffffffff1673ffffffffffffffffffffffffffffffffffffffff163373ffffffffffffffffffffffffffffffffffffffff1614610117576040517f08c379a000000000000000000000000000000000000000000000000000000000815260040161010e906105f5565b60405180910390fd5b806000808473ffffffffffffffffffffffffffffffffffffffff1673ffffffffffffffffffffffffffffffffffffffff1681526020019081526020016000209081610162919061082b565b505050565b6060600160009054906101000a900473ffffffffffffffffffffffffffffffffffffffff1673ffffffffffffffffffffffffffffffffffffffff163373ffffffffffffffffffffffffffffffffffffffff16146101f9576040517f08c379a00000000000000000000000000000000000000000000000000000000081526004016101f0906105f5565b60405180910390fd5b6000808373ffffffffffffffffffffffffffffffffffffffff1673ffffffffffffffffffffffffffffffffffffffff168152602001908152602001600020805461024290610644565b80601f016020809104026020016040519081016040528092919081815260200182805461026e90610644565b80156102bb5780601f10610290576101008083540402835291602001916102bb565b820191906000526020600020905b81548152906001019060200180831161029e57829003601f168201915b50505050509050919050565b6000604051905090565b600080fd5b600080fd5b600073ffffffffffffffffffffffffffffffffffffffff82169050919050565b6000610306826102db565b9050919050565b610316816102fb565b811461032157600080fd5b50565b6000813590506103338161030d565b92915050565b600080fd5b600080fd5b6000601f19601f8301169050919050565b7f4e487b7100000000000000000000000000000000000000000000000000000000600052604160045260246000fd5b61038c82610343565b810181811067ffffffffffffffff821117156103ab576103aa610354565b5b80604052505050565b60006103be6102c7565b90506103ca8282610383565b919050565b600067ffffffffffffffff8211156103ea576103e9610354565b5b6103f382610343565b9050602081019050919050565b82818337600083830152505050565b600061042261041d846103cf565b6103b4565b90508281526020810184848401111561043e5761043d61033e565b5b610449848285610400565b509392505050565b600082601f83011261046657610465610339565b5b813561047684826020860161040f565b91505092915050565b60008060408385031215610496576104956102d1565b5b60006104a485828601610324565b925050602083013567ffffffffffffffff8111156104c5576104c46102d6565b5b6104d185828601610451565b9150509250929050565b6000602082840312156104f1576104f06102d1565b5b60006104ff84828501610324565b91505092915050565b600081519050919050565b600082825260208201905092915050565b60005b83811015610542578082015181840152602081019050610527565b60008484015250505050565b600061055982610508565b6105638185610513565b9350610573818560208601610524565b61057c81610343565b840191505092915050565b600060208201905081810360008301526105a1818461054e565b905092915050565b7f4163636573732064656e69656400000000000000000000000000000000000000600082015250565b60006105df600d83610513565b91506105ea826105a9565b602082019050919050565b6000602082019050818103600083015261060e816105d2565b9050919050565b7f4e487b7100000000000000000000000000000000000000000000000000000000600052602260045260246000fd5b6000600282049050600182168061065c57607f821691505b60208210810361066f5761066e610615565b5b50919050565b60008190508160005260206000209050919050565b60006020601f8301049050919050565b600082821b905092915050565b6000600883026106d77fffffffffffffffffffffffffffffffffffffffffffffffffffffffffffffffff8261069a565b6106e1868361069a565b95508019841693508086168417925050509392505050565b6000819050919050565b6000819050919050565b600061072861072361071e846106f9565b610703565b6106f9565b9050919050565b6000819050919050565b6107428361070d565b61075661074e8261072f565b8484546106a7565b825550505050565b600090565b61076b61075e565b610776818484610739565b505050565b5b8181101561079a5761078f600082610763565b60018101905061077c565b5050565b601f8211156107df576107b081610675565b6107b98461068a565b810160208510156107c8578190505b6107dc6107d48561068a565b83018261077b565b50505b505050565b600082821c905092915050565b6000610802600019846008026107e4565b1980831691505092915050565b600061081b83836107f1565b9150826002028217905092915050565b61083482610508565b67ffffffffffffffff81111561084d5761084c610354565b5b6108578254610644565b61086282828561079e565b600060209050601f8311600181146108955760008415610883578287015190505b61088d858261080f565b8655506108f5565b601f1984166108a386610675565b60005b828110156108cb578489015182556001820191506020850194506020810190506108a6565b868310156108e857848901516108e4601f8916826107f1565b8355505b6001600288020188555050505b50505050505056fea2646970667358221220ada97e9675b87398294a4020b71fe7234404e1c509876b6188d85a7a9736fda464736f6c63430008130033",
  "immutableReferences": {},
  "source": "//SPDX-License-Identifier: MIT\r\npragma solidity 0.8.19;\r\n\r\ncontract Node3KeyStorage {\r\n    mapping (address => string) private keyParts;\r\n    address private contractOwner;\r\n\r\n    constructor(address _contractOwner) {\r\n        contractOwner = _contractOwner;\r\n    }\r\n    modifier onlyOwner() {\r\n        require(msg.sender == contractOwner, \"Access denied\");\r\n        _;\r\n    }\r\n    function storeKeyPart(address owner,string memory _keyPart) public onlyOwner {\r\n        keyParts[owner] = _keyPart;\r\n    }\r\n\r\n    function getKeyParts(address owner) public view onlyOwner returns (string memory) {\r\n        return keyParts[owner];\r\n    }\r\n}\r\n",
  "sourcePath": "E:\\n4-2\\truyen project\\blockchain - Copy 1 - Copy\\contracts\\Node3KeyStorage.sol",
  "compiler": {
    "name": "solc",
    "version": "0.8.19+commit.7dd6d404.Emscripten.clang"
  },
  "schemaVersion": "3.4.13",
  "updatedAt": "2023-05-21T03:29:33.200Z",
  "networkType": "ethereum",
  "devdoc": {
    "kind": "dev",
    "methods": {},
    "version": 1
  },
  "userdoc": {
    "kind": "user",
    "methods": {},
    "version": 1
  }
}